:100000000C9476000C9480000C9480000C9480007A
:100010000C9480000C9480000C9480000C9482005E
:100020000C9480000C9480000C9480000C94800050
:100030000C9480000C9480000C9480000C94800040
:100040000C9480000C9480000C9480000C94800030
:100050000C9480000C9480000C9480000C94800020
:100060000C9480000C9480000C9480000C94800010
:100070000C9480000C9480000C9480000C94800000
:100080000C9480000C9480000C9480000C948000F0
:100090000C9480000C9480000C9480000C948000E0
:1000A0000C9480000C9480000C9480000C948000D0
:1000B0000C9480000C9480000C9480000C948000C0
:1000C0000C9480000C9480000C9480000C948000B0
:1000D0000C9480000C9480000C9480000C948000A0
:1000E0000C9480000C9480000C94800011241FBE9E
:1000F000CFEFCDBFDFE7DEBF0E94A2000C94BB00B4
:100100000C9400001F920F920FB60F9211248F9340
:1001100081E080930B0A8F910F900FBE0F901F907C
:100120001895E0E0FAE081E0828780E090E286A323
:1001300097A38CE080838081806880838081816048
:100140008083089580E4809341040E949100789414
:1001500082E080935000E0E5F0E0A0E4B4E090E4B9
:10016000808181608083889580818E7F80831796CF
:0A0170009C931797F5CFF894FFCF8A
:00000001FF
